:100000000C942A000C940B030C9447000C944700AA
:100010000C944C020C9473020C9401010C947D011D
:100020000C94A4010C94F0000C9497000C947000B4
:100030000C9447000C9447000C9447000C94470024
:100040000C9447000C9447000C9447000C94470014
:100050000C94470011241FBECFE5D4E0DEBFCDBF16
:1000600010E0A0E6B0E0EEEFF3E102C005900D92E3
:10007000A038B107D9F710E0A0E8B0E001C01D92A8
:10008000A73AB107E1F70E9472090C94FD090C949C
:10009000000083B7887F83BF83B7856083BF83B742
:1000A000806483BF83B7886083BF83B7826083BF68
:1000B00083B78E7F83BF83B78F7E83BF83B7806212
:1000C00083BF089582BF08958CBF08959093A000C8
:1000D00080939F0008959093A00080939F000895BF
:1000E0001F920F920FB60F9211242F933F934F93AD
:1000F0005F936F937F938F939F93AF93BF93EF9390
:10010000FF93E0919F00F091A0000995FF91EF917E
:10011000BF91AF919F918F917F916F915F914F911F
:100120003F912F910F900FBE0F901F9018951F9227
:100130000F920FB60F9211242F933F934F935F931B
:100140006F937F938F939F93AF93BF93EF93FF939F
:10015000E0919F00F091A0000995FF91EF91BF9170
:10016000AF919F918F917F916F915F914F913F914F
:100170002F910F900FBE0F901F9018958EB5887F0E
:100180008EBD8EB581608EBD8FB58E7F8FBD8FB5D4
:100190008D7F8FBD8EB588608EBD8EB58F7E8EBDF6
:1001A00089B7806189BF8FB58F7B8FBD8FB5806820
:1001B0008FBD08959DBD8CBD089597BD86BD0895E2
:1001C0009BBD8ABD089599BD88BD08958EB5806494
:1001D0008EBD89B7846089BF89B7806289BF089561
:1001E0001F920F920FB60F9211248F9380918D0062
:1001F0008F5F80938D008F910F900FBE0F901F9097
:1002000018951F920F920FB60F9211242F933F93C0
:100210004F935F938F939F93AF93BF938091800091
:100220008823E9F426B537B580918D0090E0A0E0F1
:10023000B0E0DC019927882740E050E0820F931F4F
:10024000A41FB51F8093850090938600A09387001C
:10025000B09388008EB58F7B8EBD81E03AC081302F
:10026000E9F426B537B580918D0090E0A0E0B0E0CC
:10027000DC019927882740E050E0820F931FA41FDC
:10028000B51F8093890090938A00A0938B00B09350
:100290008C008EB580648EBD82E01BC08230D9F4A4
:1002A00086B597B520918D0030E040E050E0A9017F
:1002B00033272227A0E0B0E0280F391F4A1F5B1F19
:1002C00020938100309382004093830050938400F8
:1002D00083E080938000BF91AF919F918F915F9158
:1002E0004F913F912F910F900FBE0F901F90189537
:1002F0009093A4008093A30008951F920F920FB6CD
:100300000F9211242F933F934F935F936F937F939B
:100310008F939F93AF93BF93EF93FF93E091A300CD
:10032000F091A4000995FF91EF91BF91AF919F913A
:100330008F917F916F915F914F913F912F910F908E
:100340000FBE0F901F9018951F920F920FB60F922D
:1003500011242F933F934F935F936F937F938F93CA
:100360009F93AF93BF93EF93FF93E091A300F0911E
:10037000A4000995FF91EF91BF91AF919F918F914B
:100380007F916F915F914F913F912F910F900FBE91
:100390000F901F9018958F929F92AF92BF92CF921D
:1003A000DF92EF92FF920F931F93CF93DF93EC01B5
:1003B0004B01809180008330D9F5A0908500B090EA
:1003C0008600C0908700D0908800E0908100F09077
:1003D00082000091830010918400EA18FB080C0948
:1003E0001D0960E472E48FE090E0A80197010E948B
:1003F000DB09288339834A835B836091890070918C
:100400008A0080918B0090918C006A197B098C097D
:100410009D0924E630E040E050E00E94BC09A801BC
:1004200097010E94DB09F401208384E0809380001F
:10043000DF91CF911F910F91FF90EF90DF90CF90C0
:10044000BF90AF909F908F90089585B5887F85BDB0
:1004500085B5856085BD85B5806485BD85B58860B9
:1004600085BD85B5826085BD85B58E7F85BD85B529
:100470008F7E85BD85B5806285BD089584BD089554
:1004800083BD08959093A2008093A1000895909356
:10049000A2008093A10008951F920F920FB60F92B1
:1004A00011242F933F934F935F936F937F938F9379
:1004B0009F93AF93BF93EF93FF93E091A100F091CF
:1004C000A2000995FF91EF91BF91AF919F918F91FC
:1004D0007F916F915F914F913F912F910F900FBE40
:1004E0000F901F9018951F920F920FB60F92112424
:1004F0002F933F934F935F936F937F938F939F932C
:10050000AF93BF93EF93FF93E091A100F091A2000E
:100510000995FF91EF91BF91AF919F918F917F913D
:100520006F915F914F913F912F910F900FBE0F9060
:100530001F9018958FB780688FBF08958FB78F77FA
:100540008FBF089585B78E7F85BF85B7826085BFD1
:100550008BB780648BBF089585B78B7F85BF85B7C8
:10056000886085BF8BB780688BBF089584B78F7B09
:1005700084BF8BB780628BBF0895813001F18130D9
:1005800020F0823009F041C035C0662319F485B7E8
:100590008E7F04C0613031F485B7816085BF85B737
:1005A0008D7F26C0623019F485B78E7F04C063301A
:1005B00061F585B7816085BF85B7826019C0662304
:1005C00019F485B78B7F04C0613031F485B784603E
:1005D00085BF85B7877F0CC0623019F485B78B7FE4
:1005E00004C0633091F485B7846085BF85B78860A7
:1005F00085BF0895623021F484B78F7B84BF08954E
:10060000633019F484B7806484BF08959093A60082
:100610008093A50008951F920F920FB60F92112498
:100620002F933F934F935F936F937F938F939F93FA
:10063000AF93BF93EF93FF93E091A500F091A600D5
:100640000995FF91EF91BF91AF919F918F917F910C
:100650006F915F914F913F912F910F900FBE0F902F
:100660001F901895382F883008F07AC0613029F132
:10067000613038F0623009F43CC0633009F070C07A
:1006800053C0413059F42AB381E090E002C0880F92
:10069000991F3A95E2F7282B2ABB60C0442309F042
:1006A0005FC02AB381E090E002C0880F991F3A959D
:1006B000E2F7809582238ABB51C0413059F427B3B9
:1006C00081E090E002C0880F991F3A95E2F7282B4D
:1006D00027BB44C0442309F043C027B381E090E026
:1006E00002C0880F991F3A95E2F78095822387BB55
:1006F00035C0413059F424B381E090E002C0880F46
:10070000991F3A95E2F7282B24BB28C0442341F5D2
:1007100024B381E090E002C0880F991F3A95E2F778
:100720008095822384BB1AC0413059F421B381E003
:1007300090E002C0880F991F3A95E2F7282B21BB61
:100740000DC0442369F421B381E090E002C0880F1A
:10075000991F3A95E2F78095822381BB81E0089545
:1007600080E00895982F862F81508E3F90F0913031
:1007700049F0913028F0923039F0933051F406C0AE
:100780006ABB05C067BB03C064BB01C061BB81E03D
:10079000089580E00895382F883008F07AC06130DD
:1007A00029F1613038F0623009F43CC0633009F05F
:1007B00070C053C0413059F42BB381E090E002C0C7
:1007C000880F991F3A95E2F7282B2BBB60C0442372
:1007D00009F05FC02BB381E090E002C0880F991F41
:1007E0003A95E2F7809582238BBB51C0413059F492
:1007F00028B381E090E002C0880F991F3A95E2F794
:10080000282B28BB44C0442309F043C028B381E00F
:1008100090E002C0880F991F3A95E2F780958223F5
:1008200088BB35C0413059F425B381E090E002C067
:10083000880F991F3A95E2F7282B25BB28C044233F
:1008400041F525B381E090E002C0880F991F3A95E9
:10085000E2F78095822385BB1AC0413059F422B358
:1008600081E090E002C0880F991F3A95E2F7282BAB
:1008700022BB0DC0442369F422B381E090E002C0A2
:10088000880F991F3A95E2F78095822382BB81E019
:10089000089580E00895813051F0813030F0823049
:1008A00041F0833049F080E008956BBB03C068BB22
:1008B00001C065BB81E0089562BB81E00895282FE7
:1008C000FA018830E8F441305105D1F0613049F047
:1008D000613028F0623039F0633091F406C089B39A
:1008E00005C086B303C083B301C080B390E002C0EB
:1008F000959587952A95E2F78170808381E0089528
:1009000080E00895982F853008F047C06130B9F035
:10091000613030F0623011F1633009F03EC02DC01B
:100920008BB32FE030E002C0220F331F9A95E2F71D
:10093000209528232BBB8BB3842B8BBB2CC088B377
:100940002FE030E002C0220F331F9A95E2F7209586
:10095000282328BB88B3842B88BB1DC085B32FE018
:1009600030E002C0220F331F9A95E2F7209528232A
:1009700025BB85B3842B85BB0EC082B32FE030E04E
:1009800002C0220F331F9A95E2F72095282322BB3D
:1009900082B3842B82BB81E0089580E008953E9A63
:1009A0003F9886B1887F86B986B1836086B93D98C5
:1009B000379A089597B1907E97B997B18770892B30
:1009C00087B9369A349BFECF24B135B1C901089559
:1009D0003E9A3F9886B1887F86B986B1836086B992
:1009E0003D98359A0E94A2020E949A0280B791B760
:1009F0008F71907091BF80BF80B791B7806491BFB5
:100A000080BF379A0895FC0180918E00882349F4B5
:100A10008181608141E00E94CB0381E080938E0060
:100A200008958181608140E00E94CB0310928E0086
:100A30000895FC018181608140E00E94CB0308950C
:100A4000FC018181608141E00E94CB030895FC019B
:100A50008181608141E00E94320308956F927F920C
:100A60009F92AF92BF92CF92DF92EF92FF920F933D
:100A70001F93DF93CF930F92CDB7DEB799249A944B
:100A8000EE24FF245E010894A11CB11C24EC622E0C
:100A900029E0722E94E0C92ECE0C8C2D61E040E04E
:100AA0000E94CB038701000F111F000F111F015976
:100AB0001F4FDD248D2D61E0A5010E945F04898117
:100AC000882371F4F801908005C08D2D61E0A501A7
:100AD0000E945F0489818823C1F3C3010197F1F764
:100AE000D3940F5F1F4FF4E0DF1621F78C2D61E0E8
:100AF00041E00E94CB030894E11CF11C84E0E8165D
:100B0000F10441F6892D0F90CF91DF911F910F9144
:100B1000FF90EF90DF90CF90BF90AF909F907F902D
:100B20006F90089580E061E040E00E94320381E030
:100B300061E040E00E94320382E061E040E00E9418
:100B4000320383E061E040E00E94320384E061E030
:100B500041E00E94320385E061E041E00E943203FF
:100B600086E061E041E00E94320387E061E041E01D
:100B70000E94320380E061E041E00E94CB0381E00B
:100B800061E041E00E94CB0382E061E041E00E942D
:100B9000CB0383E061E041E00E94CB0384E061E0AD
:100BA00041E00E94CB0385E061E041E00E94CB037D
:100BB00086E061E041E00E94CB0387E061E041E034
:100BC0000E94CB0308951F93182F80E062E041E05C
:100BD0000E94CB031F70110F110F110F83E063E010
:100BE000412F0E94820482E062E041E00E94CB0338
:100BF00084EF91E00197F1F782E062E040E00E942B
:100C0000CB031F9108951F93CF93DF93EC0110E066
:100C100003C00E94E3051F5FFE01E10FF11D80810B
:100C20008823B9F7DF91CF911F9108951F93182F53
:100C300082958F700E94E305812F0E94E3051F912A
:100C400008951F93182F80E062E040E00E94CB03DC
:100C50001F70110F110F110F83E063E0412F0E94ED
:100C6000820482E062E041E00E94CB0384EF91E0E5
:100C70000197F1F782E062E040E00E94CB031F9110
:100C80000895813039F4603168F4862F80580E94CD
:100C900021060895823031F4603120F4862F80548B
:100CA0000E94210608950F931F9386E063E041E0C0
:100CB0000E94320385E063E041E00E94320384E059
:100CC00063E041E00E94320383E063E041E00E9480
:100CD000320380E062E041E00E94320382E062E0A1
:100CE00041E00E9432038CE49DE10197F1F783E03B
:100CF0000E94210683E00E94210688E30E942106CB
:100D00000AEF10E0C8010197F1F780E00E94210688
:100D10008FE00E942106C8010197F1F780E00E9450
:100D2000210681E00E94210684EF91E00197F1F70E
:100D300080E00E94210686E00E9421061F910F910B
:100D400008950F931F93182F80E062E041E00E9406
:100D5000CB0381E062E040E00E94CB0383E0612F9F
:100D60000E944B0482E062E041E00E94CB0304EF6A
:100D700011E0C8010197F1F782E062E040E00E94D3
:100D8000CB03C8010197F1F782E062E041E00E94E5
:100D9000CB031F910F910895AF92BF92CF92DF9234
:100DA000EF92FF920F931F93DF93CF93CDB7DEB7F0
:100DB0002C970FB6F894DEBF0FBECDBF6B017C0140
:100DC0006115710581059105E1F110E05E0108945E
:100DD000A11CB11CC501810F911D9C878B87C70188
:100DE000B6012AE030E040E050E00E94DB09EB85EC
:100DF000FC856083C701B6012AE030E040E050E0A6
:100E00000E94DB09C901DA016C017D011F5FC11479
:100E1000D104E104F104F1F6012F0150E02EFF248A
:100E2000E7FCF094EA0CFB1C09C0F7018081805DAF
:100E30000E94E30501500894E108F10807FFF5CF8F
:100E400003C080E30E94A1062C960FB6F894DEBF83
:100E50000FBECDBFCF91DF911F910F91FF90EF900B
:100E6000DF90CF90BF90AF900895AF92BF92CF9296
:100E7000DF92EF92FF920F931F93DF93CF93CDB743
:100E8000DEB72C970FB6F894DEBF0FBECDBF6B0157
:100E90007C016115710581059105E1F110E05E01AC
:100EA0000894A11CB11CC501810F911D9C878B87E3
:100EB000C701B6012AE030E040E050E00E94DB09C3
:100EC000EB85FC856083C701B6012AE030E040E095
:100ED00050E00E94DB09C901DA016C017D011F5F4E
:100EE000C114D104E104F104F1F6012F0150E02E08
:100EF000FF24E7FCF094EA0CFB1C09C0F701808199
:100F0000805D0E94A10601500894E108F10807FFE6
:100F1000F5CF03C080E30E94A1062C960FB6F8948B
:100F2000DEBF0FBECDBFCF91DF911F910F91FF901C
:100F3000EF90DF90CF90BF90AF9008951F93CF9325
:100F4000DF93EC0110E003C00E94A1061F5FFE01C9
:100F5000E10FF11D80818823B9F7DF91CF911F91B7
:100F600008950F931F93182F80E062E040E00E94E5
:100F7000CB0381E062E040E00E94CB0383E0612F7D
:100F80000E944B0482E062E041E00E94CB0304EF48
:100F900011E0C8010197F1F782E062E040E00E94B1
:100FA000CB03C8010197F1F782E062E041E00E94C3
:100FB000CB031F910F910895813039F4603168F4AB
:100FC000862F80580E94B1070895823031F4603135
:100FD00020F4862F80540E94B10708950F931F9329
:100FE00083E06FEF0E94B20380E062E041E00E9484
:100FF000320381E062E041E00E94320382E062E07D
:1010000041E00E9432038CE49DE10197F1F788E30F
:101010000E94B1070AEF10E0C8010197F1F78FE0D5
:101020000E94B107C8010197F1F781E00E94B10762
:1010300084EF91E00197F1F786E00E94B1071F91DC
:101040000F91089580919B0090919C00A0919D002C
:10105000B0919E000196A11DB11D80939B009093BD
:101060009C00A0939D00B0939E00885E9340A0409A
:10107000B04009F066C010929B0010929C00109244
:101080009D0010929E008091970090919800A091F1
:101090009900B0919A000196A11DB11D809397000F
:1010A00090939800A0939900B0939A00CC97A105D3
:1010B000B10508F446C01092970010929800109263
:1010C000990010929A008091930090919400A091C1
:1010D0009500B09196000196A11DB11D80939300DB
:1010E00090939400A0939500B0939600CC97A1059F
:1010F000B10538F11092930010929400109295006F
:101100001092960080918F0090919000A091910094
:10111000B09192000196A11DB11D80938F00909314
:101120009000A0939100B09392004897A105B1055B
:1011300041F410928F001092900010929100109242
:10114000920008958BE80E94B10780E30E94A106F7
:1011500080E30E94A1068AE30E94A10680E30E9428
:10116000A10680E30E94A1068AE30E94A10680E313
:101170000E94A10680E30E94A1060E942E0590E035
:10118000A0E0B0E081339105A105B10599F580910A
:10119000970090919800A0919900B0919A000196C3
:1011A000A11DB11D8093970090939800A093990082
:1011B000B0939A008BE80E94B107809197009091BC
:1011C0009800A0919900B0919A00CC97A105B10523
:1011D00041F410929700109298001092990010928A
:1011E0009A00609197007091980080919900909179
:1011F0009A006FC082339105A105B10599F58091E0
:10120000930090919400A0919500B0919600019662
:10121000A11DB11D8093930090939400A09395001D
:10122000B093960088E80E94B10780919300909156
:101230009400A0919500B0919600CC97A105B105BE
:1012400041F4109293001092940010929500109225
:101250009600609193007091940080919500909118
:10126000960037C083339105A105B105A9F580919A
:101270008F0090919000A0919100B0919200019602
:10128000A11DB11D80938F0090939000A0939100B9
:10129000B093920085E80E94B10780918F009091F1
:1012A0009000A0919100B09192004897A105B105DE
:1012B00041F410928F0010929000109291001092C1
:1012C000920060918F0070919000809191009091B8
:1012D00092000E94350751CFC497A105B10509F0CE
:1012E0004CCF08950E94EE070E94920580E690E0A0
:1012F0000E949E0780E197E229E130E0F9013197F1
:10130000F1F70197D9F781E00E94B1070E94A20886
:1013100082E298E00E9478010E94BE0088EE93E08D
:101320000E94E0000E949A028BE80E94B10760913F
:101330009700709198008091990090919A000E9476
:10134000350788E80E94B10760919300709194007E
:1013500080919500909196000E94350785E80E9443
:10136000B10760918F0070919000809191009091F1
:1013700092000E943507D8CF629FD001739FF00181
:10138000829FE00DF11D649FE00DF11D929FF00D15
:10139000839FF00D749FF00D659FF00D9927729F4C
:1013A000B00DE11DF91F639FB00DE11DF91FBD01D7
:1013B000CF0111240895A1E21A2EAA1BBB1BFD0127
:1013C0000DC0AA1FBB1FEE1FFF1FA217B307E40724
:1013D000F50720F0A21BB30BE40BF50B661F771F7C
:1013E000881F991F1A9469F760957095809590955C
:0E13F0009B01AC01BD01CF010895F894FFCF21
:1013FE005345542054484520434C4F434B3A0037F5
:10140E00343143383532303936333D2F2A2D2B00C7
:00000001FF
